{
  "contractName": "ipfsContract",
  "abi": [
    {
      "constant": true,
      "inputs": [
        {
          "name": "",
          "type": "uint256"
        }
      ],
      "name": "dataInfos",
      "outputs": [
        {
          "name": "hash",
          "type": "string"
        },
        {
          "name": "name",
          "type": "string"
        },
        {
          "name": "description",
          "type": "string"
        }
      ],
      "payable": false,
      "stateMutability": "view",
      "type": "function"
    },
    {
      "anonymous": false,
      "inputs": [],
      "name": "dataAdded",
      "type": "event"
    },
    {
      "constant": false,
      "inputs": [
        {
          "name": "_hash",
          "type": "string"
        },
        {
          "name": "_name",
          "type": "string"
        },
        {
          "name": "_description",
          "type": "string"
        }
      ],
      "name": "set",
      "outputs": [],
      "payable": false,
      "stateMutability": "nonpayable",
      "type": "function"
    },
    {
      "constant": true,
      "inputs": [
        {
          "name": "_id",
          "type": "uint256"
        }
      ],
      "name": "getHashName",
      "outputs": [
        {
          "name": "",
          "type": "string"
        },
        {
          "name": "",
          "type": "string"
        }
      ],
      "payable": false,
      "stateMutability": "view",
      "type": "function"
    },
    {
      "constant": true,
      "inputs": [],
      "name": "get",
      "outputs": [
        {
          "name": "",
          "type": "uint256[]"
        },
        {
          "name": "",
          "type": "bytes32[]"
        },
        {
          "name": "",
          "type": "bytes32[]"
        }
      ],
      "payable": false,
      "stateMutability": "view",
      "type": "function"
    },
    {
      "constant": false,
      "inputs": [
        {
          "name": "_id",
          "type": "uint256"
        }
      ],
      "name": "deleteElement",
      "outputs": [],
      "payable": false,
      "stateMutability": "nonpayable",
      "type": "function"
    }
  ],
  "bytecode": "0x608060405234801561001057600080fd5b50610f85806100206000396000f30060806040526004361061006d576000357c0100000000000000000000000000000000000000000000000000000000900463ffffffff168063205aa4e7146100725780632635327e146101f05780636d4ce63c14610302578063792de6f3146103fe578063da465d741461042b575b600080fd5b34801561007e57600080fd5b5061009d60048036038101908080359060200190929190505050610520565b60405180806020018060200180602001848103845287818151815260200191508051906020019080838360005b838110156100e55780820151818401526020810190506100ca565b50505050905090810190601f1680156101125780820380516001836020036101000a031916815260200191505b50848103835286818151815260200191508051906020019080838360005b8381101561014b578082015181840152602081019050610130565b50505050905090810190601f1680156101785780820380516001836020036101000a031916815260200191505b50848103825285818151815260200191508051906020019080838360005b838110156101b1578082015181840152602081019050610196565b50505050905090810190601f1680156101de5780820380516001836020036101000a031916815260200191505b50965050505050505060405180910390f35b3480156101fc57600080fd5b5061021b60048036038101908080359060200190929190505050610721565b604051808060200180602001838103835285818151815260200191508051906020019080838360005b8381101561025f578082015181840152602081019050610244565b50505050905090810190601f16801561028c5780820380516001836020036101000a031916815260200191505b50838103825284818151815260200191508051906020019080838360005b838110156102c55780820151818401526020810190506102aa565b50505050905090810190601f1680156102f25780820380516001836020036101000a031916815260200191505b5094505050505060405180910390f35b34801561030e57600080fd5b506103176108a5565b60405180806020018060200180602001848103845287818151815260200191508051906020019060200280838360005b83811015610362578082015181840152602081019050610347565b50505050905001848103835286818151815260200191508051906020019060200280838360005b838110156103a4578082015181840152602081019050610389565b50505050905001848103825285818151815260200191508051906020019060200280838360005b838110156103e65780820151818401526020810190506103cb565b50505050905001965050505050505060405180910390f35b34801561040a57600080fd5b5061042960048036038101908080359060200190929190505050610b64565b005b34801561043757600080fd5b5061051e600480360381019080803590602001908201803590602001908080601f0160208091040260200160405190810160405280939291908181526020018383808284378201915050505050509192919290803590602001908201803590602001908080601f0160208091040260200160405190810160405280939291908181526020018383808284378201915050505050509192919290803590602001908201803590602001908080601f0160208091040260200160405190810160405280939291908181526020018383808284378201915050505050509192919290505050610c3a565b005b60008181548110151561052f57fe5b9060005260206000209060030201600091509050806000018054600181600116156101000203166002900480601f0160208091040260200160405190810160405280929190818152602001828054600181600116156101000203166002900480156105db5780601f106105b0576101008083540402835291602001916105db565b820191906000526020600020905b8154815290600101906020018083116105be57829003601f168201915b505050505090806001018054600181600116156101000203166002900480601f0160208091040260200160405190810160405280929190818152602001828054600181600116156101000203166002900480156106795780601f1061064e57610100808354040283529160200191610679565b820191906000526020600020905b81548152906001019060200180831161065c57829003601f168201915b505050505090806002018054600181600116156101000203166002900480601f0160208091040260200160405190810160405280929190818152602001828054600181600116156101000203166002900480156107175780601f106106ec57610100808354040283529160200191610717565b820191906000526020600020905b8154815290600101906020018083116106fa57829003601f168201915b5050505050905083565b60608060008381548110151561073357fe5b906000526020600020906003020160000160008481548110151561075357fe5b9060005260206000209060030201600101818054600181600116156101000203166002900480601f0160208091040260200160405190810160405280929190818152602001828054600181600116156101000203166002900480156107f95780601f106107ce576101008083540402835291602001916107f9565b820191906000526020600020905b8154815290600101906020018083116107dc57829003601f168201915b50505050509150808054600181600116156101000203166002900480601f0160208091040260200160405190810160405280929190818152602001828054600181600116156101000203166002900480156108955780601f1061086a57610100808354040283529160200191610895565b820191906000526020600020905b81548152906001019060200180831161087857829003601f168201915b5050505050905091509150915091565b606080606060006060806060600080805490509450846040519080825280602002602001820160405280156108e95781602001602082028038833980820191505090505b5093508460405190808252806020026020018201604052801561091b5781602001602082028038833980820191505090505b5092508460405190808252806020026020018201604052801561094d5781602001602082028038833980820191505090505b5091505b84811015610b515780848281518110151561096857fe5b9060200190602002018181525050610a3760008281548110151561098857fe5b90600052602060002090600302016001018054600181600116156101000203166002900480601f016020809104026020016040519081016040528092919081815260200182805460018160011615610100020316600290048015610a2d5780601f10610a0257610100808354040283529160200191610a2d565b820191906000526020600020905b815481529060010190602001808311610a1057829003601f168201915b5050505050610d17565b8382815181101515610a4557fe5b906020019060200201906000191690816000191681525050610b1e600082815481101515610a6f57fe5b90600052602060002090600302016002018054600181600116156101000203166002900480601f016020809104026020016040519081016040528092919081815260200182805460018160011615610100020316600290048015610b145780601f10610ae957610100808354040283529160200191610b14565b820191906000526020600020905b815481529060010190602001808311610af757829003601f168201915b5050505050610d17565b8282815181101515610b2c57fe5b9060200190602002019060001916908160001916815250508080600101915050610951565b8383839750975097505050505050909192565b6000600160008054905003815481101515610b7b57fe5b9060005260206000209060030201600082815481101515610b9857fe5b906000526020600020906003020160008201816000019080546001816001161561010002031660029004610bcd929190610d42565b5060018201816001019080546001816001161561010002031660029004610bf5929190610d42565b5060028201816002019080546001816001161561010002031660029004610c1d929190610d42565b509050506000805480919060019003610c369190610dc9565b5050565b610c42610dfb565b838160000181905250828160200181905250818160400181905250600081908060018154018082558091505090600182039060005260206000209060030201600090919290919091506000820151816000019080519060200190610ca7929190610e1d565b506020820151816001019080519060200190610cc4929190610e1d565b506040820151816002019080519060200190610ce1929190610e1d565b505050507f2fdbab0347558e711c01d206a402fd2b5c38b3a5d1f1e750c6d712110261c1f160405160405180910390a150505050565b60006060829050600081511415610d345760006001029150610d3c565b602083015191505b50919050565b828054600181600116156101000203166002900490600052602060002090601f016020900481019282601f10610d7b5780548555610db8565b82800160010185558215610db857600052602060002091601f016020900482015b82811115610db7578254825591600101919060010190610d9c565b5b509050610dc59190610e9d565b5090565b815481835581811115610df657600302816003028360005260206000209182019101610df59190610ec2565b5b505050565b6060604051908101604052806060815260200160608152602001606081525090565b828054600181600116156101000203166002900490600052602060002090601f016020900481019282601f10610e5e57805160ff1916838001178555610e8c565b82800160010185558215610e8c579182015b82811115610e8b578251825591602001919060010190610e70565b5b509050610e999190610e9d565b5090565b610ebf91905b80821115610ebb576000816000905550600101610ea3565b5090565b90565b610f0e91905b80821115610f0a5760008082016000610ee19190610f11565b600182016000610ef19190610f11565b600282016000610f019190610f11565b50600301610ec8565b5090565b90565b50805460018160011615610100020316600290046000825580601f10610f375750610f56565b601f016020900490600052602060002090810190610f559190610e9d565b5b505600a165627a7a72305820b1f5654e3aa275b4cf4b1f33835662d6b21897ac27933c00948098c4361b84070029",
  "source": "pragma solidity ^0.4.2;\n\ncontract ipfsContract {\n    \n    struct dataInfo {\n        string hash;\n        string name;\n        string description;\n    }\n    \n    dataInfo[] public dataInfos;\n    \n    event dataAdded();\n    \n    function set(string _hash, string _name, string _description) public {\n        dataInfo memory newData;\n        newData.hash = _hash;\n        newData.name = _name;\n        newData.description = _description;\n        dataInfos.push(newData);\n        emit dataAdded();\n    }\n    \n    \n    function getHashName(uint _id) public constant returns(string, string){\n        return( dataInfos[_id].hash, dataInfos[_id].name );\n    }\n    \n    \n    function get() public constant returns (uint[], bytes32[], bytes32[]) {\n        uint arrayLength = dataInfos.length;\n        uint[] memory positions = new uint[](arrayLength);\n        bytes32[] memory names = new bytes32[](arrayLength);\n        bytes32[] memory descriptions = new bytes32[](arrayLength);\n        \n        for (uint i; i < arrayLength; i++) {\n        positions[i] = i;\n        names[i] = stringToBytes32( dataInfos[i].name );\n        descriptions[i] = stringToBytes32( dataInfos[i].description );\n        }\n        \n        return (positions, names, descriptions);\n    }\n    \n    function deleteElement(uint _id) public {\n        dataInfos[_id] = dataInfos[ dataInfos.length - 1 ];\n        dataInfos.length--;\n    }\n    \nfunction stringToBytes32(string memory source) private pure returns(bytes32 result) {\n    bytes memory tempEmptyStringTest = bytes(source);\n    if (tempEmptyStringTest.length == 0) {\n        return 0x0;\n    }\n\n    assembly {\n        result := mload(add(source, 32))\n    }\n}\n\n}\n\n\n\n",
  "sourcePath": "/home/user/Desktop/ipfs/ipfsProject/server/truffle/contracts/ipfsContract.sol",
  "compiler": {
    "name": "solc",
    "version": "0.4.24+commit.e67f0147.Emscripten.clang"
  },
  "schemaVersion": "2.0.1",
  "updatedAt": "2018-07-09T13:05:30.336Z"
}