{
  "contractName": "ipfsContract",
  "abi": [
    {
      "constant": true,
      "inputs": [
        {
          "name": "",
          "type": "uint256"
        }
      ],
      "name": "dataInfos",
      "outputs": [
        {
          "name": "hash",
          "type": "bytes32"
        },
        {
          "name": "name",
          "type": "bytes32"
        },
        {
          "name": "description",
          "type": "bytes32"
        }
      ],
      "payable": false,
      "stateMutability": "view",
      "type": "function"
    },
    {
      "constant": false,
      "inputs": [
        {
          "name": "_hash",
          "type": "bytes32"
        },
        {
          "name": "_name",
          "type": "bytes32"
        },
        {
          "name": "_description",
          "type": "bytes32"
        }
      ],
      "name": "set",
      "outputs": [],
      "payable": false,
      "stateMutability": "nonpayable",
      "type": "function"
    },
    {
      "constant": true,
      "inputs": [],
      "name": "get",
      "outputs": [
        {
          "name": "",
          "type": "bytes32[]"
        },
        {
          "name": "",
          "type": "bytes32[]"
        },
        {
          "name": "",
          "type": "bytes32[]"
        }
      ],
      "payable": false,
      "stateMutability": "view",
      "type": "function"
    },
    {
      "constant": true,
      "inputs": [
        {
          "name": "x",
          "type": "bytes32"
        }
      ],
      "name": "bytes32ToString",
      "outputs": [
        {
          "name": "",
          "type": "string"
        }
      ],
      "payable": false,
      "stateMutability": "view",
      "type": "function"
    }
  ],
  "bytecode": "0x608060405234801561001057600080fd5b506107a1806100206000396000f300608060405260043610610062576000357c0100000000000000000000000000000000000000000000000000000000900463ffffffff168063205aa4e7146100675780636d4ce63c146100ce5780639201de55146101ca578063bb40a4a914610274575b600080fd5b34801561007357600080fd5b50610092600480360381019080803590602001909291905050506102c1565b60405180846000191660001916815260200183600019166000191681526020018260001916600019168152602001935050505060405180910390f35b3480156100da57600080fd5b506100e36102fa565b60405180806020018060200180602001848103845287818151815260200191508051906020019060200280838360005b8381101561012e578082015181840152602081019050610113565b50505050905001848103835286818151815260200191508051906020019060200280838360005b83811015610170578082015181840152602081019050610155565b50505050905001848103825285818151815260200191508051906020019060200280838360005b838110156101b2578082015181840152602081019050610197565b50505050905001965050505050505060405180910390f35b3480156101d657600080fd5b506101f960048036038101908080356000191690602001909291905050506104a3565b6040518080602001828103825283818151815260200191508051906020019080838360005b8381101561023957808201518184015260208101905061021e565b50505050905090810190601f1680156102665780820380516001836020036101000a031916815260200191505b509250505060405180910390f35b34801561028057600080fd5b506102bf60048036038101908080356000191690602001909291908035600019169060200190929190803560001916906020019092919050505061069f565b005b6000818154811015156102d057fe5b90600052602060002090600302016000915090508060000154908060010154908060020154905083565b6060806060600060608060606000808054905094508460405190808252806020026020018201604052801561033e5781602001602082028038833980820191505090505b509350846040519080825280602002602001820160405280156103705781602001602082028038833980820191505090505b509250846040519080825280602002602001820160405280156103a25781602001602082028038833980820191505090505b5091505b84811015610490576000818154811015156103bd57fe5b90600052602060002090600302016000015484828151811015156103dd57fe5b90602001906020020190600019169081600019168152505060008181548110151561040457fe5b906000526020600020906003020160010154838281518110151561042457fe5b90602001906020020190600019169081600019168152505060008181548110151561044b57fe5b906000526020600020906003020160020154828281518110151561046b57fe5b90602001906020020190600019169081600019168152505080806001019150506103a6565b8383839750975097505050505050909192565b6060806000806000606060206040519080825280601f01601f1916602001820160405280156104e15781602001602082028038833980820191505090505b50945060009350600092505b60208310156105ab578260080260020a876001900402600102915060007f010000000000000000000000000000000000000000000000000000000000000002827effffffffffffffffffffffffffffffffffffffffffffffffffffffffffffff191614151561059e5781858581518110151561056557fe5b9060200101907effffffffffffffffffffffffffffffffffffffffffffffffffffffffffffff1916908160001a90535083806001019450505b82806001019350506104ed565b836040519080825280601f01601f1916602001820160405280156105de5781602001602082028038833980820191505090505b509050600092505b838310156106925784838151811015156105fc57fe5b9060200101517f010000000000000000000000000000000000000000000000000000000000000090047f010000000000000000000000000000000000000000000000000000000000000002818481518110151561065557fe5b9060200101907effffffffffffffffffffffffffffffffffffffffffffffffffffffffffffff1916908160001a90535082806001019350506105e6565b8095505050505050919050565b6106a761074a565b8381600001906000191690816000191681525050828160200190600019169081600019168152505081816040019060001916908160001916815250506000819080600181540180825580915050906001820390600052602060002090600302016000909192909190915060008201518160000190600019169055602082015181600101906000191690556040820151816002019060001916905550505050505050565b60606040519081016040528060008019168152602001600080191681526020016000801916815250905600a165627a7a723058201d1de11c727ed2142c90f1b2f5ceb0a60938160232440adadf4c2aeb7f7538350029",
  "source": "pragma solidity ^0.4.0;\n\ncontract ipfsContract {\n    \n    struct dataInfo {\n        bytes32 hash;\n        bytes32 name;\n        bytes32 description;\n    }\n    \n    dataInfo[] public dataInfos;\n    \n    function set(bytes32 _hash, bytes32 _name, bytes32 _description) public {\n        dataInfo memory newData;\n        newData.hash = _hash;\n        newData.name = _name;\n        newData.description = _description;\n        dataInfos.push(newData);\n    }\n    \n    \n    function get() public constant returns (bytes32[], bytes32[], bytes32[]) {\n        uint arrayLength = dataInfos.length;\n        bytes32[] memory hashes = new bytes32[](arrayLength);\n        bytes32[] memory names = new bytes32[](arrayLength);\n        bytes32[] memory descriptions = new bytes32[](arrayLength);\n        \n        for (uint i; i < arrayLength; i++) {\n        hashes[i] = dataInfos[i].hash;\n        names[i] = dataInfos[i].name;\n        descriptions[i] = dataInfos[i].description;\n        }\n        \n        return (hashes, names, descriptions);\n    }\n    \n    function bytes32ToString(bytes32 x) constant returns (string) {\n    bytes memory bytesString = new bytes(32);\n    uint charCount = 0;\n    for (uint j = 0; j < 32; j++) {\n        byte char = byte(bytes32(uint(x) * 2 ** (8 * j)));\n        if (char != 0) {\n            bytesString[charCount] = char;\n            charCount++;\n        }\n    }\n    bytes memory bytesStringTrimmed = new bytes(charCount);\n    for (j = 0; j < charCount; j++) {\n        bytesStringTrimmed[j] = bytesString[j];\n    }\n    return string(bytesStringTrimmed);\n}\n}\n\n\n\n",
  "sourcePath": "/home/user/Desktop/ipfs_ext/truffle/contracts/ipfsContract.sol",
  "compiler": {
    "name": "solc",
    "version": "0.4.24+commit.e67f0147.Emscripten.clang"
  },
  "schemaVersion": "2.0.1",
  "updatedAt": "2018-07-03T21:25:33.892Z"
}